{
  "address": "0x3beC1f09a0fEC1C696236158264276d7Fbd6151D",
  "abi": [
    {
      "inputs": [
        {
          "internalType": "address",
          "name": "exampleExternalContractAddress",
          "type": "address"
        }
      ],
      "stateMutability": "nonpayable",
      "type": "constructor"
    },
    {
      "anonymous": false,
      "inputs": [
        {
          "indexed": false,
          "internalType": "address",
          "name": "user",
          "type": "address"
        },
        {
          "indexed": false,
          "internalType": "uint256",
          "name": "amount",
          "type": "uint256"
        }
      ],
      "name": "Staked",
      "type": "event"
    },
    {
      "inputs": [
        {
          "internalType": "address",
          "name": "",
          "type": "address"
        }
      ],
      "name": "balances",
      "outputs": [
        {
          "internalType": "uint256",
          "name": "",
          "type": "uint256"
        }
      ],
      "stateMutability": "view",
      "type": "function"
    },
    {
      "inputs": [],
      "name": "deadline",
      "outputs": [
        {
          "internalType": "uint256",
          "name": "",
          "type": "uint256"
        }
      ],
      "stateMutability": "view",
      "type": "function"
    },
    {
      "inputs": [],
      "name": "exampleExternalContract",
      "outputs": [
        {
          "internalType": "contract ExampleExternalContract",
          "name": "",
          "type": "address"
        }
      ],
      "stateMutability": "view",
      "type": "function"
    },
    {
      "inputs": [],
      "name": "execute",
      "outputs": [],
      "stateMutability": "nonpayable",
      "type": "function"
    },
    {
      "inputs": [],
      "name": "stake",
      "outputs": [],
      "stateMutability": "payable",
      "type": "function"
    },
    {
      "inputs": [],
      "name": "startTime",
      "outputs": [
        {
          "internalType": "uint256",
          "name": "",
          "type": "uint256"
        }
      ],
      "stateMutability": "view",
      "type": "function"
    },
    {
      "inputs": [],
      "name": "threshold",
      "outputs": [
        {
          "internalType": "uint256",
          "name": "",
          "type": "uint256"
        }
      ],
      "stateMutability": "view",
      "type": "function"
    },
    {
      "inputs": [],
      "name": "timeLeft",
      "outputs": [
        {
          "internalType": "uint256",
          "name": "",
          "type": "uint256"
        }
      ],
      "stateMutability": "view",
      "type": "function"
    },
    {
      "inputs": [],
      "name": "withdraw",
      "outputs": [],
      "stateMutability": "nonpayable",
      "type": "function"
    },
    {
      "stateMutability": "payable",
      "type": "receive"
    }
  ],
  "transactionHash": "0x9bf4c22e94902cb33f041c31e47359453354b63d2b6c173b0af2fcd63ce05a6a",
  "args": [
    "0xbcfF8F4Dc1faAC61042ea9606F192254d635A67e"
  ],
  "numDeployments": 1,
  "solcInputHash": "fb9fcc0ad1c7bbcbbd7b74f490c9eecb",
  "bytecode": "0x6080604052610011426203f480610068565b6001554260025534801561002457600080fd5b506040516106eb3803806106eb8339810160408190526100439161008f565b600080546001600160a01b0319166001600160a01b03929092169190911790556100bf565b8082018082111561008957634e487b7160e01b600052601160045260246000fd5b92915050565b6000602082840312156100a157600080fd5b81516001600160a01b03811681146100b857600080fd5b9392505050565b61061d806100ce6000396000f3fe60806040526004361061008a5760003560e01c80633ccfd60b116100595780633ccfd60b1461011157806342cde4e814610126578063614619541461014257806378e97925146101575780639f75f2271461016d57600080fd5b80631300a6d11461009e57806327e235e3146100c657806329dcb0cf146100f35780633a4b66f11461010957600080fd5b36610099576100976101a5565b005b600080fd5b3480156100aa57600080fd5b506100b361027b565b6040519081526020015b60405180910390f35b3480156100d257600080fd5b506100b36100e136600461050f565b60036020526000908152604090205481565b3480156100ff57600080fd5b506100b360015481565b6100976101a5565b34801561011d57600080fd5b5061009761029f565b34801561013257600080fd5b506100b3670de0b6b3a764000081565b34801561014e57600080fd5b506100976103d4565b34801561016357600080fd5b506100b360025481565b34801561017957600080fd5b5060005461018d906001600160a01b031681565b6040516001600160a01b0390911681526020016100bd565b600034116101f35760405162461bcd60e51b81526020600482015260166024820152754d7573742073656e642045544820746f207374616b6560501b60448201526064015b60405180910390fd5b3360009081526003602052604081208054349290610212908490610555565b909155505060408051808201909152600881526729ba30b5b4b7339d60c11b6020820152610241903334610496565b604080513381523460208201527f9e71bc8eea02a63969f509818f2dafb9254532904319f9dbda79b67bd34a5f3d910160405180910390a1565b6000600154421061028c5750600090565b4260015461029a919061056e565b905090565b6001544210156102e85760405162461bcd60e51b8152602060048201526014602482015273111958591b1a5b99481b9bdd081c995858da195960621b60448201526064016101ea565b670de0b6b3a7640000471061033f5760405162461bcd60e51b815260206004820152601e60248201527f5468726573686f6c64206d65742c2063616e6e6f74207769746864726177000060448201526064016101ea565b33600090815260036020526040902054806103955760405162461bcd60e51b81526020600482015260166024820152754e6f2062616c616e636520746f20776974686472617760501b60448201526064016101ea565b336000818152600360205260408082208290555183156108fc0291849190818181858888f193505050501580156103d0573d6000803e3d6000fd5b5050565b60015442101561041d5760405162461bcd60e51b8152602060048201526014602482015273111958591b1a5b99481b9bdd081c995858da195960621b60448201526064016101ea565b670de0b6b3a764000047106104945760008054906101000a90046001600160a01b03166001600160a01b031663522e1177476040518263ffffffff1660e01b81526004016000604051808303818588803b15801561047a57600080fd5b505af115801561048e573d6000803e3d6000fd5b50505050505b565b6104dd8383836040516024016104ae93929190610581565b60408051601f198184030181529190526020810180516001600160e01b0316630d26b92560e01b1790526104e2565b505050565b6104eb816104ee565b50565b60006a636f6e736f6c652e6c6f679050600080835160208501845afa505050565b60006020828403121561052157600080fd5b81356001600160a01b038116811461053857600080fd5b9392505050565b634e487b7160e01b600052601160045260246000fd5b808201808211156105685761056861053f565b92915050565b818103818111156105685761056861053f565b606081526000845180606084015260005b818110156105af5760208188018101516080868401015201610592565b50600060808285018101919091526001600160a01b03959095166020840152604083019390935250601f909101601f1916010191905056fea26469706673582212202ea987fb2ca9a40a12e01baf40cc44184f0a77e2bea2ee79e2e1c529ae0a083964736f6c63430008140033",
  "devdoc": {
    "kind": "dev",
    "methods": {},
    "version": 1
  },
  "userdoc": {
    "kind": "user",
    "methods": {},
    "version": 1
  },
  "storageLayout": {
    "storage": [
      {
        "astId": 19,
        "contract": "contracts/Staker.sol:Staker",
        "label": "exampleExternalContract",
        "offset": 0,
        "slot": "0",
        "type": "t_contract(ExampleExternalContract)12"
      },
      {
        "astId": 40,
        "contract": "contracts/Staker.sol:Staker",
        "label": "deadline",
        "offset": 0,
        "slot": "1",
        "type": "t_uint256"
      },
      {
        "astId": 44,
        "contract": "contracts/Staker.sol:Staker",
        "label": "startTime",
        "offset": 0,
        "slot": "2",
        "type": "t_uint256"
      },
      {
        "astId": 48,
        "contract": "contracts/Staker.sol:Staker",
        "label": "balances",
        "offset": 0,
        "slot": "3",
        "type": "t_mapping(t_address,t_uint256)"
      }
    ],
    "types": {
      "t_address": {
        "encoding": "inplace",
        "label": "address",
        "numberOfBytes": "20"
      },
      "t_contract(ExampleExternalContract)12": {
        "encoding": "inplace",
        "label": "contract ExampleExternalContract",
        "numberOfBytes": "20"
      },
      "t_mapping(t_address,t_uint256)": {
        "encoding": "mapping",
        "key": "t_address",
        "label": "mapping(address => uint256)",
        "numberOfBytes": "32",
        "value": "t_uint256"
      },
      "t_uint256": {
        "encoding": "inplace",
        "label": "uint256",
        "numberOfBytes": "32"
      }
    }
  }
}